:020000040800F2
:10000000C0060020910200086D1300086513000867
:100010006913000889040008851500080000000025
:100020000000000000000000000000007513000840
:100030008D04000800000000711300087913000807
:10004000AB020008AB020008AB020008AB020008DC
:10005000AB020008AB020008AB020008AB020008CC
:10006000AB020008AB020008AB020008AB020008BC
:10007000AB020008AB020008AB020008AB020008AC
:10008000AB020008AB020008AB020008AB0200089C
:10009000AB020008AB020008AB020008AB0200088C
:1000A000AB020008AB020008AB020008AB0200087C
:1000B0003D140008AB020008AB020008AB020008C8
:1000C000AB020008AB020008AB020008AB0200085C
:1000D000AB020008AB020008AB020008AB0200084C
:1000E000AB020008AB020008AB020008AB0200083C
:1000F000AB020008AB020008AB020008AB0200082C
:10010000AB020008AB020008AB020008AB0200081B
:10011000AB020008AB020008AB020008AB0200080B
:10012000AB020008AB020008AB020008AB020008FB
:10013000AB0200080000000000000000AB02000855
:10014000AB020008AB020008AB020008AB020008DB
:10015000AB020008AB020008AB020008AB020008CB
:10016000AB020008AB020008AB020008AB020008BB
:10017000AB020008AB020008AB0200080000000060
:1001800000000000AB0200080000000000000000BA
:10019000AB0200080000000000000000AB020008F5
:1001A000000000000000000000000000AB0200089A
:1001B000AB020008AB020008AB020008AB0200086B
:1001C000AB02000800F002F800F052F814A696E81E
:1001D000000CB244B344DA4501D100F049F8BAE862
:1001E0000F000FA696E83000A5EB040504EB060708
:1001F000AAEB0704A7F101074FEA15154FEA3414DB
:10020000A4F10104AC4201D300F032F813F0010F65
:1002100018BFFB1A43F0010300F001F8DBE71847B1
:10022000C4140000E4140000103A24BF78C878C158
:10023000FAD8520724BF30C830C144BF04680C60EC
:1002400070470000704700000023002400250026AE
:10025000103A28BF78C1FBD8520728BF30C148BF29
:100260000B6070471FB501F028FA1FBD10B510BD17
:1002700000F0D0F81146FFF7F5FF01F085F900F026
:10028000EEF803B4FFF7F2FF03BC00F0F5F800004E
:100290000948804709480047FEE7FEE7FEE7FEE71A
:1002A000FEE7FEE7FEE7FEE7FEE7FEE70448054956
:1002B000054A064B7047000029140008C5010008D4
:1002C000C0000020C0060020C0020020C0020020A4
:1002D00053EA020C00F069802DE9F04B4FF0000664
:1002E000002B1FBFB3FA83F503FA05F424FA05F6D1
:1002F0005E4012BF1643B2FA82F502FA05F4C5F168
:1003000020051EBF22FA05FC44EA0C04203556EAFB
:10031000044C4FEA144418BF641C4FF000084FF01F
:100320000009904271EB030C39D3002919BFB1FACF
:1003300081F701FA07F6B0FA80F700FA07F6C7F17D
:1003400020071EBF20FA07FC46EA0C062037B6FB42
:10035000F4FCA7EB0507103F07F01F0BCBF12006BD
:100360002CFA06F60CFA0BFB44BFB3460026202FEE
:10037000A4BF5E464FF0000B5BEA060C08BF4FF0CF
:10038000010B19EB0B0948EB0608ABFB027C06FBE3
:1003900002CC0BFB03CCC01B71EB0C01C1E70B467D
:1003A000024641464846BDE8F08B13B5084318BFE6
:1003B0004FF0FF300146AFF30080BDE81C407047AE
:1003C0004FF0000200B5134694469646203922BFEE
:1003D000A0E80C50A0E80C50B1F12001BFF4F7AF39
:1003E000090728BFA0E80C5048BF0CC05DF804EB1B
:1003F000890028BF40F8042B08BF704748BF20F889
:10040000022B11F0804F18BF00F8012B7047704786
:1004100070477047754600F02BF8AE4605006946F8
:10042000534620F00700854618B020B5FFF73EFF81
:10043000BDE820404FF000064FF000074FF00008E5
:100440004FF0000BAC46ACE8C009ACE8C009ACE822
:10045000C009ACE8C00921F007018D46704710B50E
:100460000446AFF300802046BDE81040FFF709BF07
:10047000004870471000002001491820ABBEFEE77D
:100480002600020070470000FEE7000070470000F1
:100490002DE9F04F83B000F1200200F13E4741F614
:1004A0000005009207F1FF77C4F2020507224FEA28
:1004B000B726A84208BF062200254FF000084FF0DB
:1004C0000009062E38BF4FEAB72201920AE000BFAA
:1004D00009F1010908F10208B9F1100F05F104054D
:1004E00000F0A2800F68012202FA09FE17EA0E0A44
:1004F000EED0D1F804C003220CF003077E1E02FAEE
:1005000008F4012E6FEA040B12D88468CE6804EA5E
:100510000B0406FA08F634438460446824EA0E06A5
:10052000CCF3001404FA09F42643466004E000BF4B
:10053000032F01D103271EE0C6688C6806EA0B066C
:1005400004FA08F42643022FC66014D16FF00302A8
:10055000009E02EA590756F807C005F01C040F2256
:100560000B69A2402CEA0202A3401A43F251D1F8CF
:1005700004C00CF00307026807FA08F302EA0B0252
:100580001A431CF4403F0260A2D0002243F6440309
:100590000292C4F202031A6843F6004442F4804215
:1005A0001A601A68C4F2010402F480420292029AAC
:1005B00029F003024FF6084C2244CFF6FF7C52F894
:1005C0000C3005F00C070F26BE40B343019E06FA1F
:1005D00007F73B4342F80C30A2684B6842EA0A072F
:1005E00043F60C4CDE0258BF22EA0A07A760C4F2A9
:1005F000010CDCF800209E0242EA0A0758BF22EAFA
:100600000A07CCF8007062689E0342EA0A0758BFE6
:1006100022EA0A0767602268DB0342EA0A0758BF3A
:1006200022EA0A07276053E703B0BDE8F08F000015
:100630000069084018BF012070470000426902EAC3
:100640000103914341EA034181617047002A08BFD9
:10065000090481617047000040F2BC00C2F2000052
:100660000068704740F2000040F2BC01C2F2000096
:10067000C2F2000100780A68104408607047000068
:1006800080B543F60040C4F20200016841F40071F5
:100690000160016841F480610160016841F480718A
:1006A0000160032000F086F80F2000F005F800F04C
:1006B00027F8002080BD000070B540F20006C2F2AD
:1006C000000640F208013278C2F200014FF47A735A
:1006D0000968B3FBF2F20446B1FBF2F1084600F000
:1006E0006BFB0F2C4FF0010508D838B94FF0FF30E5
:1006F00021460022002500F031F87460284670BDC4
:1007000082B0002043F640010190C4F202014A6821
:1007100042F480424A604A6802F480420192019A9F
:100720000090086840F080500860086800F0805031
:100730000090009802B07047002848BF704700F052
:100740001F01012202FA01F11C2202EAD0004EF23E
:100750000012CEF2000281507047000010B54EF634
:100760000C5CCEF2000CDCF80030C3F3022E8EF0ED
:100770000704042C28BF0424BEF103034FF0FF3EFE
:100780000EFA04F438BF0023A14399400EFA03F394
:100790009A43114300F00F0200F160430901043A4B
:1007A00003F564436244002848BF02F10C0319704A
:1007B00010BD00004EF60C51CEF200010A684FF653
:1007C000FF031A4060F30A2242F0806040F0FD709F
:1007D00008607047002804BF012070472DE9F041F0
:1007E00043F60808C4F202080446D8F8F8030D4698
:1007F00000F00F00814207D988F8F853D8F8F803C1
:1008000000F00F00A84277D12068810717D5410773
:1008100005D5D8F8001041F4E051C8F800100107E0
:1008200005D5D8F8001041F46041C8F80010D8F898
:100830000010A26821F0F0011143C8F80010C007B1
:1008400040D1D8F8F80300F00F00854207D288F8AD
:10085000F853D8F8F80300F00F00A8424CD12068F4
:10086000410707D5D8F80010E26821F4E0511143A0
:10087000C8F80010000708D5D8F80000216920F456
:10088000604040EAC100C8F8000000F055F8D8F810
:10089000001041F2D462C1F30311C0F60002515CB2
:1008A00040F2080220FA01F140F20400C2F2000016
:1008B0000068C2F200021160FFF7FEFE0020BDE8F2
:1008C000F08100BF6068811E022907D258F8081C19
:1008D00089015CBF0120BDE8F08111E0012807D14A
:1008E00058F8081C89035CBF0120BDE8F08107E0CF
:1008F00058F8081C890703D40120BDE8F08100BF27
:10090000D8F8001021F003010843C8F80000FFF7F1
:10091000A3FE064641F28837D8F80000616800F06F
:100920000C00B0EB810F8CD0FFF796FE801BB84215
:10093000F2D90320BDE8F08110B543F60404C4F2F7
:1009400002046068C0F3810142F20040C0F2F4008A
:10095000DFE801F04202081841F20020C0F27A00FC
:1009600010BD00BF216801F03F02216823684902E1
:10097000C3F3881116D4A1FB00010023FFF7A8FCE4
:1009800017E000BF216801F03F0221682368490297
:10099000C3F3881114D4A1FB00010023FFF798FCD6
:1009A00015E000BF41F20020C0F27A004843B0FBDE
:1009B000F2F021680222C1F3014102EB410109E09A
:1009C00041F20020C0F27A004843B0FBF2F0216807
:1009D000C1F30271B0FBF1F010BD0000002804BFAC
:1009E000012070472DE9F04182B00446007843F6BB
:1009F0000006C007C4F202060CD0B06800F00C007C
:100A0000042840F089803068800303D5606800289E
:100A100000F050812078800723D5B06810F00C0FCB
:100A200011D0B06800F00C00082802D170684002B4
:100A300009D5B06800F00C000C2840F09F80706869
:100A4000400200F19B803068800703D5E0680128F0
:100A500040F030813068216920F0F80040EAC100A0
:100A600030602078000713D4207840072AD4A56985
:100A7000002D00F01A81B06800F00C00082840F04A
:100A8000AB80012D40F0E880012002B0BDE8F0818C
:100A90006069002840F20000C4F2472000F088801E
:100AA0000121C0F8801EFFF7D7FD0546706F800753
:100AB000DAD4FFF7D1FD401B0228F7D9032002B09A
:100AC000BDE8F081306C5FEAC0080AD400200190D4
:100AD000306C40F080503064306C00F080500190F9
:100AE000019847F20007C4F200073868C00537D400
:100AF000386840F480703860FFF7AEFD054600BFEF
:100B00003868C0052CD4FFF7A7FD401B0228F7D991
:100B1000032002B0BDE8F081B06800F00C000828A6
:100B200003D1706840023FF56EAFB06800F00C0072
:100B30000C2803D1706840023FF565AF61683068EA
:100B4000B1F5803F07D0B1F5A02F40F0CB8040F445
:100B500080203060306840F480303060CBE000BFEF
:100B6000A168306F012905D0052957D140F0040054
:100B70003067306F40F00100306759E0E0680028CE
:100B800000F09C800020C4F2472001210160FFF7A3
:100B900063FD0546306880073FF55CAFFFF75CFDFD
:100BA000401B02284FF00300F4D902B0BDE8F081E9
:100BB0000021C0F8801EFFF74FFD0546706F8007CB
:100BC0007FF552AFFFF748FD401B0228F6D90320FE
:100BD00002B0BDE8F08100BF0027C4F24727002023
:100BE0003866FFF739FD022D05460BD130688001CC
:100BF00040F19280FFF730FD401B02284FF00300C8
:100C0000F4D9D2E7306880014FD5FFF725FD401BAE
:100C100002284FF00300F5D9C7E700BF20F001001C
:100C20003067306F002920F00400306700F09880B2
:100C3000FFF712FD054641F2883700BF306F80078D
:100C400000F1A080FFF708FD401BB842F6D9032051
:100C500002B0BDE8F08100BF7068E16900F4800275
:100C60008A4227D1216A00F03F028A4222D147F608
:100C7000C071626A0140B1EB821F1BD1A16A4FF6BD
:100C8000FF73C903994300F44032A1F580318A42D1
:100C900010D1E16A00F07062B2EB016F0AD1216BF2
:100CA00000F0E040B0EB017F04D1002002B0BDE8CD
:100CB000F08100BF012002B0BDE8F0810020C4F245
:100CC000472000210160FFF7C7FC05463068800718
:100CD0007FF5C7AEFFF7C0FC401B02284FF00300B2
:100CE000F4D962E720F4803030603068002920F4C5
:100CF0008020306050D0FFF7AFFC0546306880039D
:100D00003FF588AEFFF7A8FC401B6428F6D9032006
:100D100002B0BDE8F08100BF04F11C052FCD246BAB
:100D2000084340EA8210D9034FF6FF729143A1F5C0
:100D3000803140EA0560084340EA04707060012099
:100D40003866FFF789FC044630688001ADD4FFF7B0
:100D500083FC001B02284FF00300F5D925E700BFF4
:100D6000FFF77AFC054641F2883700BF306F8007F5
:100D700008D5FFF771FC401BB8424FF00300F5D9CE
:100D800013E700BFB8F1000F3FF571AE306C20F0F3
:100D9000805030646BE600BFFFF75EFC054600BF85
:100DA000306880037FF536AEFFF756FC401B6428A1
:100DB0004FF00300F4D9F8E6411E0020B0EB116FAC
:100DC0001CBF012070474EF21002CEF200025160AB
:100DD0004EF62351CEF20001F0230B7007219060F4
:100DE00011607047704700007047000090F83C2089
:100DF000012A4FF0020254D010B580F83D2002685D
:100E0000D2F804E0D2F808C00C682EF07003234337
:100E100041F2FF74C4F20004A24253600EDC40F2BF
:100E2000FF73C4F200039A4216DCB2F1804F2BD05C
:100E300040F20043C4F2000324E000BF40F2FF335D
:100E4000C4F201039A4213DC41F60003C4F200032A
:100E50009A4219D0002313E040F60003C4F20003C5
:100E60009A4211D040F60043C4F200030AE000BFEA
:100E700044F20003C4F201039A4205D040F2004359
:100E8000C4F201039A4204D149682CF0800319434B
:100E900091600121002280F83D1080F83C20BDE8DF
:100EA0001040104670470000002804BF0120704722
:100EB00010B5044690F83D0028B9002084F83C00A5
:100EC000204600F01FF8022084F83D002068211D14
:100ED00000F0BAFA012084F8460084F83E0084F855
:100EE0003F0084F8400084F8410084F8420084F810
:100EF000430084F8440084F8450084F83D00002055
:100F000010BD00000068B0F1804F18BF704780B579
:100F100082B00020019043F64000C4F20200016854
:100F2000002241F0010101600068002100F0010091
:100F3000019001981C20FFF711FC1C2002B0BDE8B5
:100F40008040FFF7F9BB000090F83D1001291CBF5D
:100F500001207047022180F83D10006841F2FF72C5
:100F6000C168C4F20002904241F00101C1600DDC91
:100F700040F2FF71C4F20001884215DCB0F1804FED
:100F80002AD040F20041C4F2000123E040F2FF31D8
:100F9000C4F20101884213DC41F60001C4F20001F1
:100FA000884219D0002113E040F60001C4F200018C
:100FB000884211D040F60041C4F200010AE000BFAF
:100FC00044F20001C4F20101884205D040F2004120
:100FD000C4F20101884206D1816801F007010629A7
:100FE00004BF00207047016841F00101016000204A
:100FF0007047000090F83C20012A4FF002026CD0AC
:1010000080B580F83D20D0F800C04FF67772DCF84C
:10101000083023EA0202CCF808200B684F2B29DCA9
:101020001F2B45DD202B46D0302B44D0402B40F0E9
:10103000AF80D1F804E0C968DCF82030DCF820206B
:1010400022F00102CCF82020DCF8182022F0F00277
:1010500042EA011123F00A0242EA0E02CCF818100B
:10106000CCF82020DCF8081041F0470121F03001D5
:1010700028E000BF6F2B33DDB3F5005F74D0B3F50C
:10108000805F21D0702B40F08380D1E901E3C968F3
:10109000DCF8082043EA0E0322F47F4243EA0121F0
:1010A0001143CCF80810DCF8081041F0770109E092
:1010B0000BB1102B6CD1DCF8081021F07001194332
:1010C00041F00701CCF808100022012180F83D1002
:1010D000002180F83C10BDE880401046704700BFFA
:1010E000502B21D0602B53D1D1F804E0C968DCF833
:1010F0002030DCF8202022F01002CCF82020DCF890
:10110000182022F4704242EA013123F0A00242EAA0
:101110000E12CCF81810CCF82020DCF8081041F0A2
:10112000670121F01001CDE7D1F804E0C968DCF8CF
:101130002030DCF8202022F00102CCF82020DCF85E
:10114000182022F0F00242EA011123F00A0242EADA
:101150000E02CCF81810CCF82020DCF8081041F072
:10116000570121F02001ADE7D1E901E3C968DCF8BE
:10117000082043EA0E0322F47F4243EA012111438F
:10118000CCF80810DCF8081041F480419AE700BF61
:1011900001229AE77047000070B504460068C568F0
:1011A0000669B10716D515F0020113D06FF00201E0
:1011B0000161012121778069800703D02046FFF774
:1011C000E9FF05E0204600F08FF8204600F08EF899
:1011D00000202077700719D515F0040016D020687C
:1011E0006FF00401016102212177806910F4407FD2
:1011F00004D02046FFF7CEFF06E000BF204600F0F7
:1012000073F8204600F072F800202077300717D5D9
:1012100015F0080014D020686FF008010161042166
:101220002177C069800703D02046FFF7B3FF05E0B0
:10123000204600F059F8204600F058F800202077AA
:10124000F00619D515F0100016D020686FF01001C7
:10125000016108212177C06910F4407F04D0204645
:10126000FFF798FF06E000BF204600F03DF820465B
:1012700000F03CF800202077F00718BF15F00100BF
:1012800002D1300609D412E020686FF0010101613B
:10129000204600F02DF8300609D515F0800006D064
:1012A00020686FF0800101612046FFF79BFD70060A
:1012B00009D515F0400006D020686FF040010161AB
:1012C000204600F04DF8B00658BF70BD15F0200064
:1012D00008D021686FF0200220460A61BDE8704006
:1012E000FFF782BD70BD000070470000704700002E
:1012F0000068B0F1804F18BF7047B0B540F60004E9
:10130000C4F20204A4F580604FF48051FFF796F90F
:10131000A4F500601021FFF78BF940F2700500285A
:1013200018BF0120C2F20005287020460221FFF7F5
:101330007FF9002818BF0120687020460421FFF7BC
:1013400077F9002818BF0120A87020460821FFF770
:101350006FF9002818BF0120E870BDE8B040704761
:1013600070470000FEE70000FEE70000FEE7000017
:101370007047000070470000FFF774B970B594B073
:1013800007AC20463421FFF71BF8002543F6400048
:101390000695CDE90455CDE902550195C4F2020048
:1013A0000168022641F080510160006800F0805021
:1013B0000190019847F200000195C4F20000016815
:1013C00041F440410160006800F440400190019800
:1013D000012007904FF4803008904FF480000E9069
:1013E00004200F90A020CDE9100620460D96CDE9EF
:1013F0001266FFF7F3FA18B172B600BFFEE700BF3E
:101400000F20CDE902064FF4A05005904FF4805014
:10141000069002A805210495FFF7DCF910B172B619
:10142000FEE700BF14B070BD4EF68850CEF200004B
:10143000016841F4700101607047000040F27400DF
:10144000C2F20000FFF7A8BEB0B540F6FF3E056847
:10145000C4F2000E40F2004C7045C4F2010C25DCD1
:10146000B0F1804F2FD040F20043C4F20003984205
:1014700029D040F60003C4F20003984223D041F67D
:10148000FF73C4F20003984228DC70453ADCB0F1E7
:10149000804F5BD040F20043C4F20003984255D025
:1014A00040F60003C4F200034EE000BF40F60043E4
:1014B000C4F20003984206D0604504D00023C4F271
:1014C00001039842DBD14B6825F0700243EA020524
:1014D00041F6FF73C4F200039842D6DD43F6FF7372
:1014E000C4F2010398421FDC42F20003C4F200037D
:1014F00098422BD00023C4F20103984226D06045C5
:1015000024D028E040F60043C4F2000398421DD0E6
:1015100041F60003C4F20003984217D041F600439D
:10152000C4F2000310E000BF44F20003C4F2010360
:1015300098420BD044F60003C4F20103984205D050
:1015400044F20043C4F20103984204D1CB6825F46D
:10155000407243EA02050A688C684B69C46240F431
:1015600080648262644504BF09690163026825F0F2
:10157000800142F0040219430260012242610160CD
:10158000B0BD0000FEE7000088B0FFF779F8FFF774
:10159000F5FE002643F630000596CDE90366CDE959
:1015A00001660696C4F20200016840F2004441F070
:1015B000800101600168C4F2020401F0800106911B
:1015C000069906960168002241F004010160016855
:1015D0004FF4805701F004010691069906960168C0
:1015E00041F001010160016801F0010106910699D5
:1015F0000696016841F00201016000684FF48051D5
:1016000000F00200069006982046FFF71FF80E2013
:1016100001ADCDE9010604F5806029460396FEF789
:1016200037FF1020CDE90106A4F580602946039616
:10163000FEF72EFF0120CDE902062046294601973C
:101640000496FEF725FF40F27400C2F200004FF04E
:10165000804142F20F730496CDE90266CDE9066639
:1016600041F63F7280E84600C0E903368661FFF725
:101670001BFC18B172B600BFFEE700BF40F2740059
:10168000C2F2000001A90197FFF7B4FC10B172B6D5
:10169000FEE700BF40F27400C2F2000006A9FFF7A7
:1016A000A5FB18B172B600BFFEE700BF40F27400A0
:1016B000C2F20000FFF748FCFEE7F1EE100A4FF619
:1016C000FF71C0F2C03120EA010040F04070E1EE4D
:1016D000100A70470000000000000000010203042F
:1016E0000607080908170008000000201000000085
:1016F000280200081817000810000020B00600009B
:101700004802000800000000010000001000000076
:081710000024F40000000000B9
:04000005080001C529
:00000001FF
